:020000040000FA
:0400000007EF00F016
:0A0008005F82DDED23F074EF22F0BB
:1008000000496E74726F647563652076616C6F72F7
:100810003A20004465204C756E6120506F6E636510
:10082000004A75616E2044652044696F730025306D
:100830002E336600494E46004E414E00696E6600FA
:0B0840006E616E006C66002564000015
:10084C00000E00017B6F000E7A6F30C08CF031C04F
:10085C008DF032C08EF033C08FF08FBF3AEF04F0C2
:10086C0038EF04F050EF04F0000E7B6F010E7A6F3E
:10087C008CC001F08DC002F08EC003F08FC004F06C
:10088C005FEC23F001C08CF002C08DF003C08EF041
:10089C0004C08FF0000E0001936F000E926FDEC04B
:1008AC007FF0DFC080F07A517B11D8A460EF04F0A8
:1008BC0062EF04F069EF04F0E2A567EF04F069EF72
:1008CC0004F083EF04F07A517B11D8A470EF04F09C
:1008DC0072EF04F078EF04F0000E656F2B0E646F6E
:1008EC007CEF04F0000E656F2D0E646F64C000F198
:1008FC00924B932B7F07D8A080078CC001F08DC042
:10090C0002F08EC003F08FC004F058EC1EF001040E
:10091C000210D8A494EF04F096EF04F0EDEF04F07D
:10092C00BF0E356EFF0E366E3450376E386A35504A
:10093C0037263650382238500AE11A0E375CD8A0C8
:10094C00AAEF04F0ADEF04F0010EAEEF04F0000ED0
:10095C000001666F676B66516711D8B4B8EF04F08D
:10096C00BAEF04F0C8EF04F0000E9225016E010EF0
:10097C009321026E340E036E080E046EA9EC21F066
:10098C00D4EF04F0000E9225016E010E9321026E3D
:10099C003C0E036E080E046EA9EC21F00001FD0E56
:1009AC007F27FF0E80232EC011F02FC012F0000EF7
:1009BC00136E010E146E7FC015F080C016F0A7ECFC
:1009CC001FF011C02EF012C02FF0FDEF09F08CC0FB
:1009DC0001F08DC002F08EC003F08FC004F058EC13
:1009EC001EF001500210D8A4FEEF04F000EF05F049
:1009FC0040EF05F0BF0E356EFF0E366E3450376E7D
:100A0C00386A355037263650382238500AE11A0EDB
:100A1C00375CD8A014EF05F017EF05F0010E18EFB6
:100A2C0005F0000E0001686F696B68516911D8B44C
:100A3C0022EF05F024EF05F032EF05F0000E9225C1
:100A4C00016E010E9321026E380E036E080E046EB9
:100A5C00A9EC21F0D4EF04F0000E9225016E010EEA
:100A6C009321026E400E036E080E046EA9EC21F069
:100A7C00D4EF04F0000E0001946F000E956F800E01
:100A8C00966F3F0E976F000E916F000E906F8CC09B
:100A9C0001F08DC002F08EC003F08FC004F0000E88
:100AAC00056E000E066E000E076E000E086EC4EC8E
:100ABC0020F0D8B064EF05F066EF05F0E9EF05F033
:100ACC0085EF05F094C001F095C002F096C003F0DC
:100ADC0097C004F0000E056E000E066E200E076E19
:100AEC00410E086E54EC0FF001C094F002C095F06A
:100AFC0003C096F004C097F00001904B912B8CC072
:100B0C001AF08DC01BF08EC01CF08FC01DF0000EB3
:100B1C00056E000E066E200E076E410E086E94C018
:100B2C0001F095C002F096C003F097C004F054ECAD
:100B3C000FF001C01EF002C01FF003C020F004C073
:100B4C0021F0D6EC1DF0D8B0AEEF05F0B0EF05F00B
:100B5C0068EF05F0D0EF05F094C001F095C002F0FD
:100B6C0096C003F097C004F0000E056E000E066EE2
:100B7C00200E076E410E086E69EC11F001C094F066
:100B8C0002C095F003C096F004C097F000019007E6
:100B9C00D8A091078CC01AF08DC01BF08EC01CF031
:100BAC008FC01DF094C01EF095C01FF096C020F0B1
:100BBC0097C021F0D6EC1DF0D8A0E7EF05F0E9EFD7
:100BCC0005F0B2EF05F034C007F0086A4AEC21F0EA
:100BDC0007500001816F81C07EF0670E8119D8A487
:100BEC00FAEF05F0FCEF05F022EF06F0E051E11111
:100BFC00D8A403EF06F005EF06F009EF06F0000E9F
:100C0C00E16F010EE06FE1BF16EF06F0E15106E176
:100C1C00E005D8B014EF06F016EF06F01CEF06F066
:100C2C00000E7D6F060E7C6F2BEF06F0E0C07CF0A3
:100C3C00E1C07DF02BEF06F0E1BF27EF06F029EFC6
:100C4C0006F016EF06F01CEF06F0670E8119D8A41B
:100C5C0032EF06F034EF06F063EF06F091AF42EF9F
:100C6C0006F0FC0E905DFF0E9159D8A040EF06F0F7
:100C7C0042EF06F061EF06F0FF0E356EFF0E366E9A
:100C8C007CC037F07DC038F03550372636503822CE
:100C9C009051375C3850800A396E9151800A39581E
:100CAC00D8A05BEF06F05DEF06F061EF06F0660E84
:100CBC007E6F63EF06F0650E7E6F7CC074F07DC0B6
:100CCC0075F0670E8119D8A46EEF06F070EF06F080
:100CDC0080EF06F0660E7E19D8A477EF06F079EF58
:100CEC0006F082EF06F091BF80EF06F07EEF06F083
:100CFC0082EF06F0744B752B660E7E19D8A489EF23
:100D0C0006F08BEF06F0ABEF06F091BF92EF06F01A
:100D1C0090EF06F09EEF06F0000E946F000E956FAC
:100D2C00800E966F3F0E976F000E916F000E906FB6
:100D3C00670E8119D8B4A5EF06F0A7EF06F0ABEF5C
:100D4C0006F09051742791517523000E8B6F000E95
:100D5C008A6F8CC082F08DC083F08EC084F08FC0FF
:100D6C0085F094C060F095C061F096C062F097C0B9
:100D7C0063F03CEF07F082C001F083C002F084C046
:100D8C0003F085C004F094C005F095C006F096C041
:100D9C0007F097C008F069EC11F001C01AF002C01E
:100DAC001BF003C01CF004C01DF047EC19F01AC076
:100DBC0086F01BC087F01CC088F01DC089F086C06F
:100DCC0001F087C002F088C003F089C004F053EC36
:100DDC001DF001C078F002C079F082C01AF083C017
:100DEC001BF084C01CF085C01DF094C005F095C0AC
:100DFC0006F096C007F097C008F086C001F087C0D7
:100E0C0002F088C003F089C004F054EC0FF001C06C
:100E1C001EF002C01FF003C020F004C021F0BEEC95
:100E2C0022F01AC082F01BC083F01CC084F01DC0DD
:100E3C0085F094C001F095C002F096C003F097C005
:100E4C0004F0000E056E000E066E200E076E410EAD
:100E5C00086E69EC11F001C094F002C095F003C06B
:100E6C0096F004C097F000018A4B8B2B74518A5D6D
:100E7C008B51800A356E7551800A3558D8A049EFD0
:100E8C0007F04BEF07F0C1EF06F094C001F095C0EE
:100E9C0002F096C003F097C004F0000E056E000E31
:100EAC00066EA00E076E400E086E54EC0FF001C0DB
:100EBC0086F002C087F003C088F004C089F082C0BD
:100ECC001AF083C01BF084C01CF085C01DF086C0D6
:100EDC001EF087C01FF088C020F089C021F0D6EC2E
:100EEC001DF0D8B07CEF07F07EEF07F089EF07F02C
:100EFC00000E0001866F000E876F000E886F000ECB
:100F0C00896FB2EF07F082C001F083C002F084C099
:100F1C0003F085C004F086C005F087C006F088C0D9
:100F2C0007F089C008F0C4EC20F0D8A0A0EF07F0BF
:100F3C00A2EF07F0B2EF07F0000178B1A8EF07F0CD
:100F4C00AAEF07F0B2EF07F0000E866F000E876F66
:100F5C00000E886F000E896F8CC001F08DC002F0FE
:100F6C008EC003F08FC004F086C005F087C006F079
:100F7C0088C007F089C008F0F4EC0CF001C082F0D6
:100F8C0002C083F003C084F004C085F060C094F00C
:100F9C0061C095F062C096F063C097F0650E0001D9
:100FAC007E19D8B4DCEF07F0DEEF07F0E4EF07F0C2
:100FBC0090C076F091C077F0E8EF07F0000E776FF5
:100FCC00000E766F000E736F000E726F000E716F55
:100FDC00000E706F000E8B6F000E8A6FE3EF08F03F
:100FEC0082C001F083C002F084C003F085C004F01D
:100FFC0094C005F095C006F096C007F097C008F0B5
:10100C0069EC11F001C01AF002C01BF003C01CF017
:10101C0004C01DF047EC19F01AC086F01BC087F015
:10102C001CC088F01DC089F086C001F087C002F09A
:10103C0088C003F089C004F053EC1DF001C078F0B7
:10104C0002C079F00001E2B92EEF08F030EF08F0A1
:10105C004DEF08F078517911D8A437EF08F039EF3B
:10106C0008F04DEF08F0670E8119D8A440EF08F096
:10107C0042EF08F04DEF08F077BF49EF08F047EF6B
:10108C0008F04DEF08F0704B712B97EF08F0725190
:10109C007311D8A454EF08F056EF08F080EF08F065
:1010AC0077BF5DEF08F05BEF08F080EF08F0000E03
:1010BC009225D96E010E9321DA6E2E0EDF6E924BB5
:1010CC00932B7F07D8A08007000E736F010E726FF1
:1010DC0080EF08F0000E9225D96E010E9321DA6E86
:1010EC00300EDF6E924B932B7F07D8A080077007D2
:1010FC00D8A0710770517111D8A487EF08F089EF4F
:10110C0008F070EF08F0000E9225D96E010E9321B5
:10111C00DA6E7851300FDF6E924B932B7F07D8A08D
:10112C00800782C01AF083C01BF084C01CF085C0FD
:10113C001DF094C005F095C006F096C007F097C05E
:10114C0008F086C001F087C002F088C003F089C0A7
:10115C0004F054EC0FF001C01EF002C01FF003C0ED
:10116C0020F004C021F0BEEC22F01AC082F01BC0AB
:10117C0083F01CC084F01DC085F094C001F095C0B4
:10118C0002F096C003F097C004F0000E056E000E3E
:10119C00066E200E076E410E086E69EC11F001C050
:1011AC0094F002C095F003C096F004C097F00001D3
:1011BC007607D8A077078A4B8B2B74518A5D8B519D
:1011CC00800A356E7551800A3558D8B0F0EF08F0AA
:1011DC00F2EF08F000EF09F093BFFEEF08F0935127
:1011EC0009E14B0E925DD8A0FEEF08F000EF09F07C
:1011FC00F6EF07F072517311D8A407EF09F009EF5D
:10120C0009F01AEF09F0E2A90EEF09F010EF09F05E
:10121C001AEF09F0000E9225D96E010E9321DA6EA9
:10122C002E0EDF6E924B932B000E9225D96E010E73
:10123C009321DA6E000EDF6E650E7E19D8A429EFAD
:10124C0009F02BEF09F0D9EF04F0000E8B6F4F0E65
:10125C008A6F000E8A25D96E010E8B21DA6E000E74
:10126C00DF6E000E7B6F000E7A6F91BF42EF09F0BC
:10127C0040EF09F04AEF09F0000E7B6F010E7A6F18
:10128C00906D911FD8B0912B000E7D6F020E7C6F6C
:10129C007BEF09F08A07D8A08B07000E8A25D96E40
:1012AC00010E8B21DA6E90C001F091C002F0000E9D
:1012BC00046E0A0E036E6CEC20F00150300FDF6EE2
:1012CC0090C001F091C002F0000E046E0A0E036E85
:1012DC000AEC20F001C090F002C091F000017C07F4
:1012EC00D8A07D077F07D8A0800790519111D8A472
:1012FC0082EF09F084EF09F050EF09F07DBF91EF18
:10130C0009F07D5106E17C05D8B08FEF09F091EF23
:10131C0009F050EF09F08A07D8A08B077A517B119E
:10132C00D8A49BEF09F09DEF09F0A3EF09F0000E94
:10133C006B6F2B0E6A6FA7EF09F0000E6B6F2D0E03
:10134C006A6F000E8A25D96E010E8B21DA6E6AC087
:10135C00DFFF7F07D8A080078A07D8A08B07BF0EB6
:10136C00356EFF0E366E3450376E386A3550372670
:10137C003650382238500AE11A0E375CD8A0C9EF23
:10138C0009F0CCEF09F0010ECDEF09F0000E6E6FF5
:10139C006F6B6E516F11D8A4D6EF09F0D8EF09F02E
:1013AC00DEEF09F0000E6D6F650E6C6FE2EF09F069
:1013BC00000E6D6F450E6C6F000E8A25D96E010EF6
:1013CC008B21DA6E6CC0DFFF7F07D8A08007000E80
:1013DC009225016E010E9321026E000E8A25036E7A
:1013EC00010E8B21046EA9EC21F0D9EF04F0120050
:1013FC0042C0D9FF43C0DAFFDECFF6FFDDCFF7FFE7
:10140C000800F550250AD8A40EEF0AF010EF0AF0E8
:10141C00D8EF0CF042C0D9FF43C0DAFFDE2A000E31
:10142C00DD22000E0001DF6F000EDE6FDEC0E2F089
:10143C00DFC0E3F0E069E169000EA16F000EA06F60
:10144C006EEF0AF0E28142C0D9FF43C0DAFFDE2A18
:10145C00000EDD226EEF0AF0E28329EF0AF0E2853E
:10146C0029EF0AF0E28729EF0AF0E28929EF0AF066
:10147C00000EA16F010EA06F6EEF0AF042C0D9FFF3
:10148C0043C0DAFFDECFF6FFDDCFF7FF0800F550E3
:10149C00466E476A4750000AD8B457EF0AF03EEF41
:1014AC000AF04650200AD8B438EF0AF0030AD8B430
:1014BC003BEF0AF0080AD8B435EF0AF0060AD8B4A4
:1014CC0028EF0AF01D0AD8B432EF0AF03EEF0AF00A
:1014DC00A051A111D8B475EF0AF077EF0AF044EFE0
:1014EC000AF0E2A17CEF0AF07EEF0AF07FEF0AF03F
:1014FC00E29342C0D9FF43C0DAFFDECFF6FFDDCF67
:10150C00F7FF0800F5502E0AD8A48FEF0AF091EFE0
:10151C000AF00FEF0BF0000EE16F000EE06F42C00F
:10152C00D9FF43C0DAFFDE2A000EDD2242C0D9FF0C
:10153C0043C0DAFFDECFF6FFDDCFF7FF0800F55032
:10154C002A0AD8A4ACEF0AF0AEEF0AF0CBEF0AF0FF
:10155C0042C0D9FF43C0DAFFDE2A000EDD2244C0B0
:10156C00D9FF45C0DAFFDFCF46F0020EDE26DFCF13
:10157C0047F0000EDD2246C0D9FF47C0DAFFDECFB0
:10158C00E0F0DDCFE1F00FEF0BF042C0D9FF43C02C
:10159C00DAFFDECF08F0DDCF09F050EC1AF008C00E
:1015AC00E0F009C0E1F0E2EF0AF042C0D9FF43C01D
:1015BC00DAFFDE2A000EDD22D00E466EFF0E476EDD
:1015CC0042C0D9FF43C0DAFFDECFF6FFDDCFF7FF15
:1015DC000800F550486E496A465048264750492243
:1015EC0049500AE10A0E485CD8A0FFEF0AF002EF5E
:1015FC000BF0010E03EF0BF0000E0001A26FA36BBA
:10160C00A251A311D8A40DEF0BF00FEF0BF0DBEFF1
:10161C000AF042C0D9FF43C0DAFFDECFF6FFDDCFC0
:10162C00F7FF0800F550076E086A4AEC21F00750E6
:10163C000001AA6FAA51D8B426EF0BF028EF0BF0DB
:10164C0062EF0BF042C0D9FF43C0DAFFDECF46F0A9
:10165C00DDCF47F0010E4626000E472246C0F6FFAE
:10166C0047C0F7FF0800F550076E086A4AEC21F0F6
:10167C0007500001AB6FAB51D8B447EF0BF049EFFB
:10168C000BF062EF0BF042C0D9FF43C0DAFFDECFA4
:10169C0046F0DDCF47F0020E4626000E472246C02C
:1016AC00F6FF47C0F7FF0800F550076E086A4AECD2
:1016BC0021F007500001AC6F42C0D9FF43C0DAFFE4
:1016CC00DECFF6FFDDCFF7FF0800F550640AD8B483
:1016DC0072EF0BF074EF0BF086EF0BF042C0D9FFFA
:1016EC0043C0DAFFDECFF6FFDDCFF7FF0800F55081
:1016FC00690AD8A484EF0BF086EF0BF0C6EF0BF061
:10170C0042C0D9FF43C0DAFFDE2A000EDD2244C0FE
:10171C00D9FF45C0DAFFDFCF46F0020EDE26DFCF61
:10172C0047F0000EDD2246C0D9FF47C0DAFFDECFFE
:10173C0098F0DDCF99F0000E99BFFF0E9A6F9B6F5A
:10174C009C6F9D6F9E6F9F6F40C01CF041C01DF041
:10175C0098C01EF099C01FF09AC020F09BC021F0D9
:10176C009CC022F09DC023F09EC024F09FC025F0A9
:10177C0036EC13F01CC040F01DC041F0F3EF0CF040
:10178C00660EAA19D8A4CDEF0BF0CFEF0BF00FEF2C
:10179C000CF042C0D9FF43C0DAFFDECFF6FFDDCF3D
:1017AC00F7FF0800F5CFADF042C0D9FF43C0DAFF18
:1017BC00DE2A000EDD2244C0D9FF45C0DAFFDFCFA0
:1017CC0046F0040EDE26DFCF47F0000EDD2246C0C9
:1017DC00D9FF47C0DAFFDECFA6F0DECFA7F0DECF11
:1017EC00A8F0DECFA9F040C02EF041C02FF0A6C06B
:1017FC0030F0A7C031F0A8C032F0A9C033F0ADC0B2
:10180C0034F026EC04F02EC040F02FC041F0F3EF82
:10181C000CF0AA0E016E000E026E440E036E080E42
:10182C00046E000E066E020E056ED7EC1EF0015013
:10183C000210D8A424EF0CF026EF0CF0A2EF0CF061
:10184C0042C0D9FF43C0DAFFDECF46F0DDCF47F010
:10185C00010E4626000E472246C0F6FF47C0F7FF92
:10186C000800F5CFADF0BF0E466EFF0E476E42C0BE
:10187C00D9FF43C0DAFFDECFF6FFDDCFF7FF08005C
:10188C00F550486E496A46504826475049224950FF
:10189C000AE11A0E485CD8A056EF0CF059EF0CF088
:1018AC00010E5AEF0CF0000E0001A46FA56BA451B1
:1018BC00A511D8B464EF0CF066EF0CF080EF0CF0CF
:1018CC0044C0D9FF45C0DAFFDFCF46F0040EDE2658
:1018DC00DFCF47F0000EDD2246C0D9FF47C0DAFF4C
:1018EC00DECFA6F0DECFA7F0DECFA8F0DECFA9F0DA
:1018FC0098EF0CF044C0D9FF45C0DAFFDFCF46F0BB
:10190C00040EDE26DFCF47F0000EDD2246C0D9FFE5
:10191C0047C0DAFFDECFA6F0DECFA7F0DECFA8F00F
:10192C00DECFA9F0020E42C0D9FF43C0DAFFDE269B
:10193C00000EDD22F9EF0BF042C0D9FF43C0DAFFF5
:10194C00DECFF6FFDDCFF7FF0800F550250AD8A44F
:10195C00B2EF0CF0B4EF0CF0CBEF0CF042C0D9FFAF
:10196C0043C0DAFFDE2A000EDD22000E026E250EC9
:10197C00016E40C003F041C004F042EC1FF0000EB9
:10198C00416E010E406EF3EF0CF042C0D9FF43C024
:10199C00DAFFDE2A000EDD22000E416E000E406ED4
:1019AC00F3EF0CF042C0D9FF43C0DAFFDECFF6FFF5
:1019BC00DDCFF7FF0800F550016E026A40C003F05E
:1019CC0041C004F042EC1FF042C0D9FF43C0DAFF23
:1019DC00DE2A000EDD22C5EF0CF012000450800B45
:1019EC000D6E045004240F6E03AEFFEF0CF001EFEC
:1019FC000DF002EF0DF00F800F50D8B408EF0DF082
:101A0C000AEF0DF01FEF0DF00F28D8A410EF0DF01A
:101A1C0012EF0DF01AEF0DF0000E016E000E026EBB
:101A2C00000E036E000E046E038E000E046E27EF84
:101A3C000DF0000E016E000E026E000E036E000E15
:101A4C00046E0850800B0E6E0D500E18D8B431EF8A
:101A5C000DF033EF0DF034EF0DF00D8C0850082421
:101A6C000E6E07AE3CEF0DF03EEF0DF03FEF0DF0BC
:101A7C000E800E50D8B445EF0DF047EF0DF05CEF33
:101A8C000DF00E28D8A44DEF0DF04FEF0DF057EFE1
:101A9C000DF0000E056E000E066E000E076E000EA9
:101AAC00086E078E000E086E64EF0DF0000E056ECA
:101ABC00000E066E000E076E000E086E0F500E5CC8
:101ACC00D8B06BEF0DF06DEF0DF094EF0DF00DAC99
:101ADC0072EF0DF074EF0DF076EF0DF0800E0D1A25
:101AEC000FC010F00EC00FF010C00EF001C010F0BF
:101AFC0005C001F010C005F002C010F006C002F0E5
:101B0C0010C006F003C010F007C003F010C007F0BF
:101B1C0004C010F008C004F010C008F0000E106EE5
:101B2C000F500EC009F00A6A095E000E0A5A0ABE6E
:101B3C00A9EF0DF00A5009E11A0E095CD8A0A9EF23
:101B4C000DF0ABEF0DF0E2EF0DF0015002100310B1
:101B5C000410D8A4B4EF0DF0B7EF0DF0010EB8EFF0
:101B6C000DF0000E106E000E016E000E026E000ED7
:101B7C00036E000E046E0EC00FF0EBEF0DF010A014
:101B8C00CAEF0DF0CCEF0DF0D2EF0DF0D890103075
:101B9C000109106ED4EF0DF0D890103201A0D9EFDE
:101BAC000DF0DBEF0DF0DCEF0DF0108E0434043291
:101BBC000332023201320F2A0E500F5CD8A0E9EF2B
:101BCC000DF0EBEF0DF0C5EF0DF00DBCF0EF0DF0DF
:101BDC00F2EF0DF032EF0EF00F50D8A4F8EF0DF03D
:101BEC00FAEF0DF004EF0EF0000E016E000E026E17
:101BFC00000E036E000E046E53EF0FF0055001261D
:101C0C0006500222075003220850042204A011EFB0
:101C1C000EF013EF0EF0BFEF0EF010A018EF0EF059
:101C2C001AEF0EF020EF0EF0D89010300109106E64
:101C3C0022EF0EF0D890103201A027EF0EF029EF12
:101C4C000EF02AEF0EF0108E0434043203320232FE
:101C5C0001320F2ABFEF0EF00550015C06500258FE
:101C6C00075003580450800A096E0850800A09581E
:101C7C00D8B043EF0EF045EF0EF070EF0EF00150C0
:101C8C00055C096E025006580A6E035007580B6E1D
:101C9C00045008580C6EFF0E0924016EFF0E0A202A
:101CAC00026EFF0E0B20036EFF0E0C20046E800ED6
:101CBC000D1A106C1050D8A466EF0EF068EF0EF0F1
:101CCC0078EF0EF0010E0126000E022203220422F0
:101CDC0078EF0EF00550015E0650025A0750035A79
:101CEC000850045A0150021003100410D8A481EFBC
:101CFC000EF083EF0EF0B8EF0EF01050D8A489EF71
:101D0C000EF08BEF0EF0B8EF0EF0000E016E000E21
:101D1C00026E000E036E000E046E53EF0FF0D8909F
:101D2C00013602360336043610AE9FEF0EF0A1EFEB
:101D3C000EF0A2EF0EF0018010A0A7EF0EF0A9EFAD
:101D4C000EF0ADEF0EF0D8801036AFEF0EF0D8904D
:101D5C0010360F50D8B4B5EF0EF0B7EF0EF0B8EF59
:101D6C000EF00F0603AEBDEF0EF0BFEF0EF095EFC9
:101D7C000EF0000E0E6E10AEC6EF0EF0C8EF0EF0A9
:101D8C00E0EF0EF010C009F07F0E0916D8B4D1EFB9
:101D9C000EF0D3EF0EF0D7EF0EF0010E0E6EE0EF5B
:101DAC000EF001A0DCEF0EF0DEEF0EF0E0EF0EF027
:101DBC00D3EF0EF00E50D8B4E6EF0EF0E8EF0EF0C5
:101DCC0013EF0FF0010E0126000E02220322042253
:101DDC0004A0F3EF0EF0F5EF0EF013EF0FF001C0CF
:101DEC0009F002C00AF003C00BF004C00CF00C3474
:101DFC000C320B320A32093209C001F00AC002F06F
:101E0C000BC003F00CC004F00F28D8B410EF0FF087
:101E1C0012EF0FF013EF0FF00F2A0F28D8B419EFB1
:101E2C000FF01BEF0FF023EF0FF00F50D8A421EFA2
:101E3C000FF023EF0FF035EF0FF0000E016E000ED8
:101E4C00026E000E036E000E046E0F50D8A431EF1C
:101E5C000FF033EF0FF035EF0FF0000E0D6E0FA0FB
:101E6C003AEF0FF03CEF0FF03FEF0FF0038E40EF27
:101E7C000FF0039ED8900F30046E0DAE48EF0FF0AC
:101E8C004AEF0FF04BEF0FF0048E01C001F002C0CF
:101E9C0002F003C003F004C004F012000450800BE5
:101EAC000D6E04500424136E03AE5FEF0FF061EF60
:101EBC000FF062EF0FF013801350D8B468EF0FF0EF
:101ECC006AEF0FF07DEF0FF01328D8A470EF0FF02E
:101EDC0072EF0FF07AEF0FF0000E016E000E026E33
:101EEC00000E036E000E046E038E85EF0FF0000ED5
:101EFC00016E000E026E000E036E000E046E085092
:101F0C00800B0D1A08500824126E07AE90EF0FF0DC
:101F1C0092EF0FF093EF0FF012801250D8B499EFAC
:101F2C000FF09BEF0FF0AEEF0FF01228D8A4A1EF3B
:101F3C000FF0A3EF0FF0ABEF0FF0000E056E000EDD
:101F4C00066E000E076E000E086E078EB6EF0FF0D1
:101F5C00000E056E000E066E000E076E000E086E6B
:101F6C001250D8B4BCEF0FF0BEEF0FF0C6EF0FF06D
:101F7C001350D8A4C4EF0FF0C6EF0FF0D0EF0FF052
:101F8C00000E016E000E026E000E036E000E046E4B
:101F9C0068EF11F007500102F3CF18F0F4CF19F0ED
:101FAC0018500E6E0F6A106A116A1950146E156A69
:101FBC00166A176A06500202F3CF18F0F4CF19F024
:101FCC0018500E26000E0F22102211221950142622
:101FDC00000E15221622172205500302F3CF18F01B
:101FEC00F4CF19F018500E26000E0F2210221122D9
:101FFC0019501426000E15221622172210C011F0AB
:10200C000FC010F00EC00FF00E6A05500202F3CF95
:10201C0018F0F4CF19F018500E2619500F22000E9C
:10202C001022000E112206500102F3CF18F0F4CF4B
:10203C0019F018500E2619500F22000E1022000E07
:10204C00112210C011F00FC010F00EC00FF00E6A6C
:10205C0005500102F3CF18F0F4CF19F018500E26EA
:10206C0019500F22000E1022000E112207500202EE
:10207C00F3CF18F0F4CF19F018501426195015227C
:10208C00000E1622000E172206500302F3CF18F092
:10209C00F4CF19F01850142619501522000E1622E0
:1020AC00000E172207500302F3CF18F0F4CF19F0EB
:1020BC001850096E19500A6E0B6A0C6A0BC00CF0A2
:1020CC000AC00BF009C00AF0096A095014260A501C
:1020DC0015220B5016220C5017220EC009F00FC0FF
:1020EC000AF010C00BF011C00CF0190E83EF10F0B9
:1020FC00D8900C320B320A320932E82E7EEF10F0F7
:10210C00095014260A5015220B5016220C50172277
:10211C0010C011F00FC010F00EC00FF00E6A12506C
:10212C0013C009F00A6A0926000E0A22820E09243D
:10213C00186EFF0E0A20196EB9EF10F0D8901436F5
:10214C0015361636173611AEAEEF10F0B0EF10F0A4
:10215C00B1EF10F01480D8900E360F3610361136C1
:10216C001806D8A0190616AEBEEF10F0C0EF10F08E
:10217C00A4EF10F0000E126E11AEC7EF10F0C9EF05
:10218C0010F0EDEF10F0FF0E0E14096EFF0E0F1491
:10219C000A6EFF0E10140B6E7F0E11140C6E09508C
:1021AC000A100B100C10D8B4DEEF10F0E0EF10F0AA
:1021BC00E4EF10F0010E126EEDEF10F014A0E9EF49
:1021CC0010F0EBEF10F0EDEF10F0E0EF10F012501C
:1021DC00D8B4F3EF10F0F5EF10F019EF11F0010E89
:1021EC001426000E15221622172217A000EF11F04C
:1021FC0002EF11F019EF11F014C009F015C00AF03C
:10220C0016C00BF017C00CF00C340C320B320A3227
:10221C00093209C014F00AC015F00BC016F00CC03E
:10222C0017F0184A192A19BE24EF11F0195008E1B9
:10223C001828D8A024EF11F026EF11F030EF11F090
:10224C00000E146E000E156E800E166E7F0E176E3D
:10225C005EEF11F019BE3DEF11F0195006E11804B4
:10226C00D8B03BEF11F03DEF11F049EF11F0000E3B
:10227C00146E000E156E000E166E000E176E000E0C
:10228C000D6E5EEF11F018C013F0FF0E1416FF0E5A
:10229C0015167F0E1616000E171613A058EF11F018
:1022AC005AEF11F05BEF11F0168ED8901330176EB9
:1022BC000D50171214C001F015C002F016C003F037
:1022CC0017C004F012000450800B116E045004244B
:1022DC00186E03AE74EF11F076EF11F077EF11F08A
:1022EC0018801850D8B47DEF11F07FEF11F094EFF7
:1022FC0011F01828D8A485EF11F087EF11F08FEFAB
:10230C0011F0000E016E000E026E000E036E000E38
:10231C00046E038E000E046E9CEF11F0000E016E25
:10232C00000E026E000E036E000E046E0850800B41
:10233C00111A08500824196E07AEA7EF11F0A9EF77
:10234C0011F0AAEF11F019801950D8B4B0EF11F0B8
:10235C00B2EF11F0C7EF11F01928D8A4B8EF11F0B3
:10236C00BAEF11F0C2EF11F0000E056E000E066E02
:10237C00000E076E000E086E078E000E086ECFEF73
:10238C0011F0000E056E000E066E000E076E000EAC
:10239C00086E0550061007100810D8A4D8EF11F0DD
:1023AC00DAEF11F0F2EF11F0000E016E000E026E7A
:1023BC00000E036E000E046E800E03127F0E0412CC
:1023CC001150041201C001F002C002F003C003F06E
:1023DC0004C004F035EF13F01850D8A4F8EF11F046
:1023EC00FAEF11F004EF12F0000E016E000E026E07
:1023FC00000E036E000E046E35EF13F0195018C06A
:10240C0009F00A6A095E000E0A5A7F0E0924126E40
:10241C00000E0A20136E01C00DF002C00EF003C0B6
:10242C000FF004C010F0000E016E000E026E000ED4
:10243C00036E000E046E000E146E000E156E000E70
:10244C00166E000E176E000E196E65EF12F0195015
:10245C00D8B433EF12F035EF12F04CEF12F0D890F5
:10246C000D360E360F361036D8900136023603363E
:10247C00043617AE44EF12F046EF12F047EF12F0AD
:10248C000180D890143615361636173605500D5C6B
:10249C0006500E5807500F5808501058D8A059EF36
:1024AC0012F05BEF12F064EF12F0178C05500D5E1A
:1024BC0006500E5A07500F5A0850105A192A190E66
:1024CC0019646BEF12F06DEF12F02DEF12F00D504E
:1024DC000E100F101010D8B476EF12F078EF12F037
:1024EC0090EF12F0148090EF12F0D8900136023673
:1024FC000336043617AE85EF12F087EF12F088EF33
:10250C0012F00180D890143615361636173612068E
:10251C00D8A0130603AE95EF12F097EF12F07BEFF5
:10252C0012F0000E196E17AE9EEF12F0A0EF12F023
:10253C00C4EF12F0FF0E1414096EFF0E15140A6E80
:10254C00FF0E16140B6E7F0E17140C6E09500A102A
:10255C000B100C10D8B4B5EF12F0B7EF12F0BBEFB4
:10256C0012F0010E196EC4EF12F001A0C0EF12F0C0
:10257C00C2EF12F0C4EF12F0B7EF12F01950D8B44A
:10258C00CAEF12F0CCEF12F0F0EF12F0010E0126B0
:10259C00000E02220322042204A0D7EF12F0D9EF7E
:1025AC0012F0F0EF12F001C009F002C00AF003C003
:1025BC000BF004C00CF00C340C320B320A32093222
:1025CC0009C001F00AC002F00BC003F00CC004F00B
:1025DC00124A132A13BEFBEF12F0135008E1122813
:1025EC00D8A0FBEF12F0FDEF12F008EF13F0000E85
:1025FC00136E1268000E016E000E026E000E036E5A
:10260C00000E046E13BE15EF13F0135006E1120406
:10261C00D8B013EF13F015EF13F023EF13F0000EF7
:10262C00136E000E126E000E016E000E026E000E86
:10263C00036E000E046E000E116E12C018F018A07E
:10264C002AEF13F02CEF13F02FEF13F0038E30EF73
:10265C0013F0039ED8901830046EE6EF11F01200C0
:10266C001EC036F01FC037F020C038F021C039F042
:10267C0022C03AF023C03BF024C03CF025C03DF012
:10268C003DBE4BEF13F04EEF13F0010E4FEF13F076
:10269C00000E346E356A34503510D8B458EF13F040
:1026AC005AEF13F06AEF13F03D1E3C1E3B1E3A1E10
:1026BC00391E381E371E366C000E3722382239224E
:1026CC003A223B223C223D220001E1BF70EF13F085
:1026DC0072EF13F073EF13F0E293E1BF80EF13F09E
:1026EC00E15106E1E005D8B07EEF13F080EF13F076
:1026FC0086EF13F0000E316E010E306E8AEF13F080
:10270C00E0C030F0E1C031F0DEC032F0DFC033F0B9
:10271C0034503510D8A495EF13F097EF13F09EEFCB
:10272C0013F0E2A59CEF13F09EEF13F0A1EF13F062
:10273C003206D8A03306000E3F6E4F0E3E6E000ED2
:10274C0001014F6F26EF14F03E06D8A03F06000E95
:10275C003E24D96E010E3F20DA6E36C001F037C030
:10276C0002F038C003F039C004F03AC005F03BC0A9
:10277C0006F03CC007F03DC008F00A0E096E000ED2
:10278C000A6E000E0B6E000E0C6E000E0D6E000E1F
:10279C000E6E000E0F6E000E106EA1EC1CF001C040
:1027AC0026F002C027F003C028F004C029F005C0B1
:1027BC002AF006C02BF007C02CF008C02DF026C064
:1027CC0013F028C014F003EC23F01350300FDF6E1D
:1027DC003006D8A031063206D8A0330636C001F038
:1027EC0037C002F038C003F039C004F03AC005F02D
:1027FC003BC006F03CC007F03DC008F00A0E096E65
:10280C00000E0A6E000E0B6E000E0C6E000E0D6E9E
:10281C00000E0E6E000E0F6E000E106EDDEC1BF037
:10282C0001C036F002C037F003C038F004C039F0F4
:10283C0005C03AF006C03BF007C03CF008C03DF0C4
:10284C003FBE31EF14F03F5008E13E04D8A031EF09
:10285C0014F033EF14F064EF14F0365037103810D6
:10286C0039103A103B103C103D10D8A440EF14F036
:10287C0042EF14F0AAEF13F031BE4FEF14F03150C9
:10288C0006E13004D8B04DEF14F04FEF14F0AAEF7E
:10289C0013F033BE5AEF14F0335008E13204D8A0D1
:1028AC005AEF14F05CEF14F064EF14F00001E2B393
:1028BC0062EF14F064EF14F0AAEF13F034503510FB
:1028CC00D8A46BEF14F06DEF14F075EF14F0000159
:1028DC00E2A573EF14F075EF14F093EF14F03E06CD
:1028EC00D8A03F0634503510D8A47FEF14F081EFF8
:1028FC0014F087EF14F0000E2F6E2B0E2E6E8BEF54
:10290C0014F0000E2F6E2D0E2E6E000E3E24D96E7E
:10291C00010E3F20DA6E2EC0DFFF1CC011F01DC06F
:10292C0012F0000E3E24136E010E3F20146E32C0C6
:10293C0015F033C016F0A7EC1FF011C01CF012C03C
:10294C001DF01200939A9468818A82A0B0EF14F063
:10295C00B2EF14F0F4EF14F05D505E10D8A4B9EFA0
:10296C0014F0BBEF14F0F4EF14F0000E5E6E010ED9
:10297C005D6E030E0A6E8A0E096E560EE82EFED799
:10298C00092EFCD70A2EFAD782B0CFEF14F0D1EF74
:10299C0014F0D7EF15F05D045E10D8A4D8EF14F046
:1029AC00DAEF14F0D7EF15F0000E0001ED6F000E0A
:1029BC00EC6F000E5E6E000E5D6EF0EC23F0000E00
:1029CC000001E76F000EE66F000EEF6F000EEE6F6A
:1029DC00F0EC23F0819A8290D7EF15F082A2F9EFF8
:1029EC0014F0FBEF14F032EF15F05D505E10D8A42C
:1029FC0002EF15F004EF15F032EF15F0000E5E6EDD
:102A0C00010E5D6E030E0A6E8A0E096E560EE82ECE
:102A1C00FED7092EFCD70A2EFAD782B218EF15F082
:102A2C001AEF15F0D7EF15F05D045E10D8A421EF66
:102A3C0015F023EF15F0D7EF15F0000E0001ED6F38
:102A4C00000EEC6F819A000EE76F000EE66FEE4BF6
:102A5C00EF2B8292D7EF15F082A437EF15F039EFF8
:102A6C0015F091EF15F05D505E10D8A440EF15F005
:102A7C0042EF15F091EF15F0000E5E6E010E5D6EDB
:102A8C00030E0A6E8A0E096E560EE82EFED7092E1C
:102A9C00FCD70A2EFAD782B456EF15F058EF15F082
:102AAC00D7EF15F05D045E10D8A45FEF15F061EF61
:102ABC0015F0D7EF15F0000E0001ED6F000EEC6F66
:102ACC00000E5E6E000E5D6E819AF0EC23F000013C
:102ADC00F805F911D8A475EF15F077EF15F083EF21
:102AEC0015F0000EF96F020EF86F000EEF6F000E6E
:102AFC00EE6FF0EC23F087EF15F0000EF96F010E7E
:102B0C00F86F8294000E0001EF6F000EEE6FF0EC88
:102B1C0023F0D7EF15F082A896EF15F098EF15F08B
:102B2C00D3EF15F05D045E10D8A49FEF15F0A1EF64
:102B3C0015F0D3EF15F0000E5E6E010E5D6E030EF8
:102B4C000A6E8A0E096E560EE82EFED7092EFCD799
:102B5C000A2EFAD782B2B5EF15F0B7EF15F0D7EF12
:102B6C0015F05D045E10D8A4BEEF15F0C0EF15F0A3
:102B7C00D7EF15F0000E0001ED6F000EEC6F000E9C
:102B8C005E6E000E5D6E819AD60E00D000D0E82EDF
:102B9C00FCD700D08298D7EF15F0819A938A000E5B
:102BAC00946E819A938A000E946E12009398946896
:102BBC00818882A0E4EF15F0E6EF15F028EF16F00F
:102BCC005D505E10D8A4EDEF15F0EFEF15F028EF87
:102BDC0016F0000E5E6E010E5D6E030E026E8A0E16
:102BEC00016E560EE82EFED7012EFCD7022EFAD718
:102BFC0082B003EF16F005EF16F001EF17F05D044D
:102C0C005E10D8A40CEF16F00EEF16F001EF17F0D3
:102C1C00000E0001ED6F000EEC6F000E5E6E000EEC
:102C2C005D6EEE4BEF2B819C000EE76F010EE66F95
:102C3C008190D60E00D000D0E82EFCD700D0829028
:102C4C0001EF17F082A22DEF16F02FEF16F071EFB7
:102C5C0016F05D505E10D8A436EF16F038EF16F073
:102C6C0071EF16F0000E5E6E010E5D6E030E026EBD
:102C7C008A0E016E560EE82EFED7012EFCD7022EC0
:102C8C00FAD782B24CEF16F04EEF16F001EF17F0B8
:102C9C005D045E10D8A455EF16F057EF16F001EF57
:102CAC0017F0000E0001ED6F000EEC6F000E5E6E63
:102CBC00000E5D6EEE4BEF2B818C000EE76F020E5B
:102CCC00E66F8180D60E00D000D0E82EFCD700D065
:102CDC00829201EF17F082A476EF16F078EF16F0DF
:102CEC00B9EF16F05D505E10D8A47FEF16F081EFAF
:102CFC0016F0B9EF16F0000E5E6E010E5D6E030E4F
:102D0C00026E8A0E016E560EE82EFED7012EFCD7EF
:102D1C00022EFAD782B495EF16F097EF16F001EF6A
:102D2C0017F05D045E10D8A49EEF16F0A0EF16F01D
:102D3C0001EF17F0000E0001ED6F000EEC6F000EAE
:102D4C005E6E000E5D6EEE4BEF2B8198000EE76F02
:102D5C00030EE66FD60E00D000D0E82EFCD700D0C4
:102D6C00829401EF17F082A8BEEF16F0C0EF16F0B8
:102D7C00FDEF16F05D045E10D8A4C7EF16F0C9EF96
:102D8C0016F0FDEF16F0000E5E6E010E5D6E030E7A
:102D9C00026E8A0E016E560EE82EFED7012EFCD75F
:102DAC00022EFAD782B2DDEF16F0DFEF16F001EF4C
:102DBC0017F05D045E10D8A4E6EF16F0E8EF16F0FD
:102DCC0001EF17F0000E0001ED6F000EEC6F000E1E
:102DDC005E6E000E5D6EEE4BEF2B8198D60E00D022
:102DEC0000D0E82EFCD700D0829801EF17F0819824
:102DFC009388000E946E81989388000E946E000E4A
:102E0C005E6E000E5D6E120093949468818482A0B5
:102E1C0012EF17F014EF17F04FEF17F05D505E1034
:102E2C00D8A41BEF17F01DEF17F04FEF17F0000EA3
:102E3C005E6E010E5D6E030E0A6E8A0E096E560EE4
:102E4C00E82EFED7092EFCD70A2EFAD782B031EF26
:102E5C0017F033EF17F025EF18F05D045E10D8A4CF
:102E6C003AEF17F03CEF17F025EF18F0000E0001C9
:102E7C00ED6F000EEC6F000E5E6E000E5D6EEE4B95
:102E8C00EF2B8192000EE76F040EE66F829025EF18
:102E9C0018F082A254EF17F056EF17F091EF17F0DD
:102EAC005D505E10D8A45DEF17F05FEF17F091EF57
:102EBC0017F0000E5E6E010E5D6E030E0A6E8A0E2A
:102ECC00096E560EE82EFED7092EFCD70A2EFAD71D
:102EDC0082B273EF17F075EF17F025EF18F05D0461
:102EEC005E10D8A47CEF17F07EEF17F025EF18F0EA
:102EFC00000E0001ED6F000EEC6F000E5E6E000E0A
:102F0C005D6EEE4BEF2B8192000EE76F050EE66FB8
:102F1C00829225EF18F082A496EF17F098EF17F035
:102F2C00D3EF17F05D505E10D8A49FEF17F0A1EF10
:102F3C0017F0D3EF17F0000E5E6E010E5D6E030EF0
:102F4C000A6E8A0E096E560EE82EFED7092EFCD795
:102F5C000A2EFAD782B4B5EF17F0B7EF17F025EFBA
:102F6C0018F05D045E10D8A4BEEF17F0C0EF17F098
:102F7C0025EF18F0000E0001ED6F000EEC6FEE4B1C
:102F8C00EF2B000E5E6E000E5D6E8192000EE76FF1
:102F9C00060EE66F829425EF18F082A8D8EF17F092
:102FAC00DAEF17F01DEF18F05D505E10D8A4E1EFCA
:102FBC0017F0E3EF17F01DEF18F0000E5E6E010E28
:102FCC005D6E0001EE4BEF2B030E0A6E8A0E096E3E
:102FDC00560EE82EFED7092EFCD70A2EFAD782B24F
:102FEC00FAEF17F0FCEF17F025EF18F05D045E1008
:102FFC00D8A403EF18F005EF18F025EF18F0000E29
:10300C000001ED6F000EEC6F000EEF6F010EEE6F16
:10301C00F0EC23F0000E5E6E000E5D6E8192030EDE
:10302C000001E76FE80EE66F829825EF18F08194A7
:10303C009384000E946E000E5E6E000E5D6E819495
:10304C009384000E946E120093929468818282A0F5
:10305C0032EF18F034EF18F070EF18F05D505E108E
:10306C00D8A43BEF18F03DEF18F070EF18F0000EFD
:10307C005E6E010E5D6E000E0001ED6F000EEC6FCA
:10308C00030E026E8A0E016E560EE82EFED7012E2E
:10309C00FCD7022EFAD782B056EF18F058EF18F082
:1030AC0042EF19F05D045E10D8A45FEF18F061EFE9
:1030BC0018F042EF19F0000E5E6E000E5D6E8192FC
:1030CC00000E0001E76F070EE66FEE4BEF2B8290C0
:1030DC0042EF19F082A275EF18F077EF18F0B2EF0B
:1030EC0018F05D505E10D8A47EEF18F080EF18F049
:1030FC00B2EF18F0000E5E6E010E5D6E030E026EE6
:10310C008A0E016E560EE82EFED7012EFCD7022E2B
:10311C00FAD782B294EF18F096EF18F042EF19F04C
:10312C005D045E10D8A49DEF18F09FEF18F042EFED
:10313C0019F0000E5E6E000E5D6E000E0001ED6F5C
:10314C00000EEC6F8192000EE76F080EE66FEE4BEF
:10315C00EF2B829242EF19F082A4B7EF18F0B9EF7F
:10316C0018F0F4EF18F05D505E10D8A4C0EF18F012
:10317C00C2EF18F0F4EF18F0000E5E6E010E5D6EEB
:10318C00030E026E8A0E016E560EE82EFED7012E2D
:10319C00FCD7022EFAD782B4D6EF18F0D8EF18F07D
:1031AC0042EF19F05D045E10D8A4DFEF18F0E1EFE8
:1031BC0018F042EF19F0000E5E6E000E5D6E000E00
:1031CC000001ED6F000EEC6F8192000EE76F090E9F
:1031DC00E66FEE4BEF2B829442EF19F082A8F9EFD9
:1031EC0018F0FBEF18F03AEF19F05D505E10D8A410
:1031FC0002EF19F004EF19F03AEF19F0000E5E6EC1
:10320C00010E5D6E030E026E8A0E016E560EE82ED6
:10321C00FED7012EFCD7022EFAD782B218EF19F086
:10322C001AEF19F042EF19F05D045E10D8A421EFEB
:10323C0019F023EF19F042EF19F0000E0001ED6FB9
:10324C00000EEC6F000E5E6E000E5D6E8192000E35
:10325C00E76F010EE66FEE4BEF2B000EED6F010EDC
:10326C00EC6F829842EF19F081929382000E946E6B
:10327C00000E5E6E000E5D6E81929382000E946E57
:10328C001200CCC02AF0CDC02BF0CEC02CF0CFC099
:10329C002DF01AC02AF01BC02BF01CC02CF01DC046
:1032AC002DF0810E1E6EFF0E1F6E2AC020F02BC05B
:1032BC0021F02CC022F02DC023F0180E6BEF19F06A
:1032CC00D8902332223221322032E82E66EF19F0C8
:1032DC0020501E24286E000E1F20296E29BE80EF60
:1032EC0019F0295009E1170E285CD8A080EF19F0CD
:1032FC0082EF19F08CEF19F01AC01AF01BC01BF0FA
:10330C001CC01CF01DC01DF04FEF1AF029BE91EF30
:10331C0019F093EF19F003EF1AF028C01EF0FF0E0E
:10332C001F6EFF0E206E7F0E216E000E226E1E662B
:10333C00A2EF19F0AAEF19F02234223221322032F6
:10334C001F321E2E9DEF19F01FC024F020C025F057
:10335C0021C026F022C027F024502A141E6E2550BE
:10336C002B141F6E26502C14206E27502D14216EFA
:10337C001E501F1020102110D8A4C7EF19F0C9EF50
:10338C0019F0CBEF19F082EF19F02AC01EF02BC008
:10339C001FF02CC020F02DC021F0200EDBEF19F017
:1033AC00D890213220321F321E32E82ED6EF19F07F
:1033BC001E501F1020102110D8B4E7EF19F0E9EFC0
:1033CC0019F0F1EF19F024502A2625502B22265003
:1033DC002C2227502D22241C1E6E251C1F6E261CF1
:1033EC00206E271C216E1E502A161F502B162050A3
:1033FC002C1621502D1647EF1AF02AC01EF02BC0A8
:10340C001FF02CC020F02DC021F0200E13EF1AF06D
:10341C00D890213220321F321E32E82E0EEF1AF0D5
:10342C001E501F1020102110D8A41FEF1AF021EFEE
:10343C001AF02BEF1AF0000E2A6E000E2B6E000EF7
:10344C002C6E000E2D6E47EF1AF0D8902A341E6E9B
:10345C002B341F6E2C34206E2D34216E1E501F10F9
:10346C0020102110D8B43DEF1AF03FEF1AF047EFBF
:10347C001AF0000E2A6E000E2B6E800E2C6EBF0EF4
:10348C002D6E2AC01AF02BC01BF02CC01CF02DC0C6
:10349C001DF01200000E166E000E156E000E0F6E53
:1034AC00000E0E6E5CEF1AF0084A092A010E146E1B
:1034BC0008C0F6FF09C0F7FF0800F550200AD8B481
:1034CC006AEF1AF06CEF1AF089EF1AF0F70E0A6E29
:1034DC00FF0E0B6E08C0F6FF09C0F7FF0800F55091
:1034EC000C6E0D6A0A500C260B500D220D5009E182
:1034FC00050E0C5CD8A085EF1AF087EF1AF089EF57
:10350C001AF0000E146E14C010F0116A1050111045
:10351C00D8A493EF1AF095EF1AF05AEF1AF09FEF28
:10352C001AF0000E0F6E010E0E6E084A092AD4EF27
:10353C001AF008C0F6FF09C0F7FF0800F5500A6E34
:10354C000B6A0B50000AD8B4AEEF1AF0D4EF1AF095
:10355C000A502B0AD8B49BEF1AF0060AD8B497EF8E
:10356C001AF0D4EF1AF015C001F016C002F0000EDC
:10357C00046E0A0E036ECAEC23F008C0F6FF09C0F5
:10358C00F7FF0800F550015E000E025A300E0124C0
:10359C00156E000E0220166E9BEF1AF0D00E0A6EFE
:1035AC00FF0E0B6E08C0F6FF09C0F7FF0800F550C0
:1035BC000C6E0D6A0A500C260B500D220D500AE1B0
:1035CC000A0E0C5CD8A0EDEF1AF0F0EF1AF0010E19
:1035DC00F1EF1AF0000E126E136A12501310D8A4E9
:1035EC00FAEF1AF0FCEF1AF0B9EF1AF00E500F10B8
:1035FC00D8A403EF1BF005EF1BF013EF1BF015C065
:10360C000AF016C00BF00A1E0B1E0A4A0B2A0AC03F
:10361C0008F00BC009F017EF1BF015C008F016C02E
:10362C0009F01200720ED36E000E956E000E926EA3
:10363C00E6EC23F0B2EC23F0000E0B6E210E0C6EB8
:10364C00080E0D6E010E23EC23F0000E0B6E130E04
:10365C000C6E080E0D6E020E23EC23F0000E956E10
:10366C00E6EC23F0F0EC23F04DEF1BF0000E0B6EAC
:10367C00010E0C6E080E0D6E010E23EC23F02AECDD
:10368C0018F00AEC17F0DCEC15F0A8EC14F00001C3
:10369C00EE51EF11D8B455EF1BF057EF1BF03CEF88
:1036AC001BF0F0EC23F08EEF1BF02AEC18F00AEC78
:1036BC0017F0DCEC15F0A8EC14F0060E5C6ED70ECF
:1036CC00E82EFED75C2EFCD700F0E6C0CAF0E7C0AF
:1036DC00CBF0B60E0001AE6F000EAF6F470EB06FA1
:1036EC00080EB16FCAC0B2F0CBC0B3F000EC22F040
:1036FC000001EE050B6EB60E0C6E000E0D6EF85141
:10370C0023EC23F0000E026E320E016E99EC22F0C7
:10371C000001EFBF9AEF1BF0EF5108E1EE05D8A0C6
:10372C009AEF1BF09CEF1BF0D0EF1BF0EC51ED115E
:10373C00D8B4A3EF1BF0A5EF1BF05BEF1BF0D0EFA1
:10374C001BF02AEC18F00AEC17F0DCEC15F0A8ECE6
:10375C0014F0B60E0001AE6F000EAF6F2E0EB06FF0
:10376C00080EB16FEE0EB26F7C0EB36F2B0EB46FF2
:10377C00410EB56F00EC22F0000E0B6EB60E0C6E07
:10378C00000E0D6E010E23EC23F0000E0001EF6F06
:10379C00010EEE6FEC05ED11D8B4D7EF1BF0D9EF9D
:1037AC001BF0A7EF1BF038EF1BF007EF00F0000E3B
:1037BC00126E10BEE6EF1BF0E4EF1BF0F8EF1BF0FF
:1037CC00101E0F1E0E1E0D1E0C1E0B1E0A1E096C4B
:1037DC00000E0A220B220C220D220E220F22102286
:1037EC00010E126E08BEFFEF1BF0FDEF1BF011EF88
:1037FC001CF0081E071E061E051E041E031E021EBC
:10380C00016C000E0222032204220522062207224A
:10381C000822010E121A20EE13F0070EDE6AE806DB
:10382C00FDE209500A100B100C100D100E100F10A9
:10383C001010D8B424EF1CF026EF1CF078EF1CF01D
:10384C00010E116E34EF1CF0D89009360A360B3687
:10385C000C360D360E360F361036112A10AE39EFE7
:10386C001CF03BEF1CF02AEF1CF0D89013361436EA
:10387C00153616361736183619361A360950015CB5
:10388C000A5002580B5003580C5004580D50055850
:10389C000E5006580F50075810500858D8A059EF22
:1038AC001CF05BEF1CF06CEF1CF00950015E0A5031
:1038BC00025A0B50035A0C50045A0D50055A0E5014
:1038CC00065A0F50075A1050085A1380D8901032CD
:1038DC000F320E320D320C320B320A320932112EEB
:1038EC003BEF1CF01250D8B47EEF1CF080EF1CF0B4
:1038FC0090EF1CF01A1E191E181E171E161E151EF0
:10390C00141E136C000E14221522162217221822D4
:10391C0019221A2213C001F014C002F015C003F0D2
:10392C0016C004F017C005F018C006F019C007F057
:10393C001AC008F01200000E126E08BEAAEF1CF09E
:10394C00A8EF1CF0BCEF1CF0081E071E061E051E7F
:10395C00041E031E021E016C000E0222032204220E
:10396C000522062207220822010E126E10BEC3EF9A
:10397C001CF0C1EF1CF0D3EF1CF0101E0F1E0E1E1E
:10398C000D1E0C1E0B1E0A1E096C000E0A220B22A9
:10399C000C220D220E220F22102209500A100B109D
:1039AC000C100D100E100F101010D8B4E0EF1CF00E
:1039BC00E2EF1CF02AEF1DF0010E116EF0EF1CF07F
:1039CC00D89009360A360B360C360D360E360F36B5
:1039DC001036112A10AEF5EF1CF0F7EF1CF0E6EFE5
:1039EC001CF00950015C0A5002580B5003580C5043
:1039FC0004580D5005580E5006580F5007581050CB
:103A0C000858D8A00CEF1DF00EEF1DF01EEF1DF0A6
:103A1C000950015E0A50025A0B50035A0C50045ABA
:103A2C000D50055A0E50065A0F50075A1050085A8E
:103A3C00D89010320F320E320D320C320B320A3259
:103A4C000932112EF7EF1CF01250D8B430EF1DF0E4
:103A5C0032EF1DF042EF1DF0081E071E061E051E5C
:103A6C00041E031E021E016C000E022203220422FD
:103A7C00052206220722082201C001F002C002F032
:103A8C0003C003F004C004F005C005F006C006F046
:103A9C0007C007F008C008F01200033404340A6EA3
:103AAC000A50D8A45CEF1DF05EEF1DF068EF1DF01E
:103ABC00000E016E000E026E000E036E000E046E00
:103ACC00D5EF1DF001C005F002C006F003C007F0F1
:103ADC0004C008F0200E78EF1DF0D89008320732A1
:103AEC0006320532E82E73EF1DF00550096E038E79
:103AFC00FF0E0116FF0E0216FF0E0316000E041623
:103B0C00960E0A5E0ABE8FEF1DF08DEF1DF0A5EF2D
:103B1C001DF00A50800A970FD8B097EF1DF099EF5F
:103B2C001DF09BEF1DF05EEF1DF0D89004320332B8
:103B3C00023201320A3E9BEF1DF0BDEF1DF01F0E4D
:103B4C000A64ABEF1DF0ADEF1DF0B5EF1DF05EEFAD
:103B5C001DF0D89001360236033604360A060A5098
:103B6C00D8A4BBEF1DF0BDEF1DF0AFEF1DF0095059
:103B7C00D8B4C3EF1DF0C5EF1DF0CDEF1DF0041E42
:103B8C00031E021E016C000E02220322042201C03D
:103B9C0001F002C002F003C003F004C004F01200F4
:103BAC00000E1A14226E000E1B14236E800E1C14B1
:103BBC00246E7F0E1D14256E225023102410251008
:103BCC00D8A4EBEF1DF0EDEF1DF0F5EF1DF0000E9E
:103BDC001A6E000E1B6E000E1C6E000E1D6E000E7B
:103BEC001E14226E000E1F14236E800E2014246EE1
:103BFC007F0E2114256E2250231024102510D8A4DA
:103C0C000AEF1EF00CEF1EF014EF1EF0000E1E6EED
:103C1C00000E1F6E000E206E000E216E1DAE19EFF1
:103C2C001EF01BEF1EF024EF1EF01A6C1B1ED8B0FA
:103C3C001B2A1C1ED8B01C2A800E1D5621AE29EF43
:103C4C001EF02BEF1EF034EF1EF01E6C1F1ED8B0B2
:103C5C001F2A201ED8B0202A800E2156000E1A1AB8
:103C6C00000E1B1A000E1C1A800E1D1A000E1E1AB6
:103C7C00000E1F1A000E201A800E211A1E501A5CFC
:103C8C001F501B5820501C5821501D58D8B051EFB4
:103C9C001EF053EF1EF056EF1EF0D89057EF1EF0AB
:103CAC00D8801200D0C00BF0D1C00CF0D2C00DF0F7
:103CBC00D3C00EF001C00BF002C00CF003C00DF02D
:103CCC0004C00EF00BC005F00CC006F00DC007F0E0
:103CDC000EC008F0180E78EF1EF0D890083207329C
:103CEC0006320532E82E73EF1EF00550096E0A6A93
:103CFC0009500A10D8A485EF1EF087EF1EF0A7EF2D
:103D0C001EF0D8900B34056E0C34066E0D34076E15
:103D1C000E34086E0550061007100810D8A499EF41
:103D2C001EF09BEF1EF0A1EF1EF0000E026E020EB5
:103D3C00016ED6EF1EF0000E026E030E016ED6EF72
:103D4C001EF009280A10D8A4AEEF1EF0B0EF1EF03A
:103D5C00D2EF1EF00BC005F00CC006F00DC007F042
:103D6C000EC008F0090ED890053606360736083610
:103D7C00E82EB9EF1EF00550061007100810D8B445
:103D8C00CAEF1EF0CDEF1EF0010ECEEF1EF0000EAE
:103D9C00016E026AD6EF1EF0000E026E040E016E6A
:103DAC00120001C008F002C009F003C00AF004C000
:103DBC000BF00506D8A00606052806E10628D8A4AF
:103DCC00EAEF1EF0ECEF1EF0F9EF1EF0000E026EA3
:103DDC00000E016E41EF1FF0084A092A0A4A0B2A0D
:103DEC000506D8A0060608C0D9FF09C0DAFFDF50C7
:103DFC00D8B403EF1FF005EF1FF030EF1FF00AC02F
:103E0C00F6FF0BC0F7FF0800F5500009D8B411EF0E
:103E1C001FF013EF1FF030EF1FF005500610D8B451
:103E2C001AEF1FF01CEF1FF030EF1FF008C0D9FF86
:103E3C0009C0DAFFDF50076E0AC0F6FF0BC0F7FFB0
:103E4C000800F5500718D8B42EEF1FF030EF1FF014
:103E5C00F2EF1EF008C0D9FF09C0DAFFDF50076E81
:103E6C000AC0F6FF0BC0F7FF0800F550075C016EA7
:103E7C00026AD8A00206120003500410D8B449EF0D
:103E8C001FF04BEF1FF054EF1FF003500410D8A499
:103E9C0052EF1FF054EF1FF059EF1FF00150F4ECEC
:103EAC0023F0A6EF1FF020EE04F00350D9260450A7
:103EBC00DA22DE50DE10D8B466EF1FF068EF1FF088
:103ECC0083EF1FF020EE04F00350D9260450DA22C1
:103EDC0010EE02F00350E1260450E222DE50E65CC4
:103EEC00E650800A096EDE50800A0958D8B081EF7E
:103EFC001FF083EF1FF0A6EF1FF020EE02F003502F
:103F0C00D9260450DA22DECF05F0DDCF06F003C04F
:103F1C00D9FF04C0DAFFDECF07F0DDCF08F0055083
:103F2C000724D96E06500820DA6E01C0DFFF20EEA0
:103F3C0002F00350D9260450DA22DE2A000EDD22CC
:103F4C0012000001E2A1ADEF1FF0AFEF1FF0B9EFCF
:103F5C001FF013C00AF014C00BF011C00CF012C00B
:103F6C000DF0E1EC22F016BEBEEF1FF0C0EF1FF01B
:103F7C00C6EF1FF015C01AF016C01BF0CAEF1FF0E9
:103F8C00000E1B6E000E1A6E000E196E000E186ECF
:103F9C00DCEF1FF0000E026E200E016E11C003F05C
:103FAC0012C004F042EC1FF0184A192A1A50185C7F
:103FBC001950800A176E1B50800A1758D8A0E9EFC9
:103FCC001FF0EBEF1FF0D0EF1FF00001E2B1F1EFAB
:103FDC001FF0F3EF1FF0FDEF1FF013C00AF014C039
:103FEC000BF011C00CF012C00DF0E1EC22F013C07C
:103FFC0001F014C002F097EC23F01A500124116E5A
:10400C001B500220126E1200000E066E04BE13EF3F
:10401C0020F011EF20F019EF20F0036C041ED8B043
:10402C00042A010E066E02BE20EF20F01EEF20F0D7
:10403C0026EF20F0016C021ED8B0022A010E061ADF
:10404C00000E086E000E076E03500410D8B431EF4A
:10405C0020F033EF20F05BEF20F0010E056E3BEF0C
:10406C0020F0D89003360436052A04AE40EF20F039
:10407C0042EF20F037EF20F0D89007360836035087
:10408C00015C04500258D8A04EEF20F050EF20F005
:10409C0055EF20F00350015E0450025A0780D8906F
:1040AC0004320332052E42EF20F00650D8B461EFF3
:1040BC0020F063EF20F067EF20F0076C081ED8B0FB
:1040CC00082A07C001F008C002F01200000E066EAC
:1040DC0002BE75EF20F073EF20F07BEF20F0016C47
:1040EC00021ED8B0022A010E066E04BE82EF20F02A
:1040FC0080EF20F086EF20F0036C041ED8B0042A69
:10410C0003500410D8B48DEF20F08FEF20F0B3EFF4
:10411C0020F0010E056E97EF20F0D8900336043690
:10412C00052A04AE9CEF20F09EEF20F093EF20F0D8
:10413C000350015C04500258D8A0A7EF20F0A9EF5F
:10414C0020F0ADEF20F00350015E0450025AD890DD
:10415C0004320332052E9EEF20F00650D8B4B9EF8E
:10416C0020F0BBEF20F0BFEF20F0016C021ED8B0A6
:10417C00022A01C001F002C002F01200000E01146C
:10418C00096E000E02140A6E800E03140B6E7F0E65
:10419C0004140C6E09500A100B100C10D8A4D9EF93
:1041AC0020F0DBEF20F0E3EF20F0000E016E000EAC
:1041BC00026E000E036E000E046E000E0514096EE6
:1041CC00000E06140A6E800E07140B6E7F0E081478
:1041DC000C6E09500A100B100C10D8A4F8EF20F03C
:1041EC00FAEF20F002EF21F0000E056E000E066EC5
:1041FC00000E076E000E086E055001180FE10650F8
:10420C0002180CE10750031809E108500418D8B43F
:10421C0012EF21F014EF21F017EF21F0D89018EFE6
:10422C0021F0D88012004CC050F04DC051F0000E5F
:10423C000001DD6F000EDC6F37EF21F04AC040F05B
:10424C004BC041F0500E426E000E436E4EC044F017
:10425C004FC045F0FEEC09F040500001DC27415006
:10426C00DD2350C0F6FF51C0F7FF0800F5500009E0
:10427C00D8A443EF21F045EF21F024EF21F0DCC06E
:10428C004AF0DDC04BF01200BF0E096EFF0E0A6E35
:10429C0007C00BF008C00CF009500B260A500C227A
:1042AC000C500AE11A0E0B5CD8A05FEF21F062EF04
:1042BC0021F0010E63EF21F0000E0D6E0E6A0D5011
:1042CC000E10D8B46CEF21F06EEF21F075EF21F0E9
:1042DC00200E0710076E0850086E79EF21F007C00A
:1042EC0007F008C008F0120090EF21F009C0F6FFAB
:1042FC000AC0F7FFF86A070EF76403D00800F55000
:10430C0005D0F6CFE1FFF7CFE2FFE75028EC22F023
:10431C00094A0A2A09C0F6FF0AC0F7FFF86A070E15
:10432C00F76403D00800F55005D0F6CFE1FFF7CFC6
:10433C00E2FFE7500009D8A4A6EF21F0A8EF21F086
:10434C007CEF21F0120003C007F004C008F001C09C
:10435C0009F002C00AF00750056E0850066E074AB5
:10436C00082A05C0F6FF06C0F7FFF86A09C0D9FF96
:10437C000AC0DAFF094A0A2A070EF76403D00800BC
:10438C00F55005D0F6CFE1FFF7CFE2FFE750DF6E37
:10439C00DF50D8A4D4EF21F0D6EF21F0B1EF21F00B
:1043AC001200010E076E200E01180210D8B4E1EFB6
:1043BC0021F0E3EF21F0FCEF21F0F70E036EFF0E7E
:1043CC00046E01C005F002C006F00350052604502F
:1043DC000622065009E1050E055CD8A0F8EF21F085
:1043EC00FAEF21F0FCEF21F0000E076E07C001F090
:1043FC00026A1200B20E546E000E556EAEC056F02C
:10440C00AFC057F0000E596E000E586E000E5B6E6A
:10441C00000E5A6E560E4A6E000E4B6EB0C04CF02B
:10442C00B1C04DF0540E4E6E000E4F6E19EC21F0D3
:10443C0058500001AE25D96E5950AF21DA6E000EDE
:10444C00DF6E1200086E08C007F0F00E07168C50D5
:10445C000F0B07108C6E8C848C8600F08C96000EE3
:10446C00026E010E016E99EC22F008C007F0073ABB
:10447C00F00E07168C500F0B07108C6E8C8600F00C
:10448C008C96000E026E030E016E99EC22F0120057
:10449C00086E08C007F0F00E07168C500F0B0710B3
:1044AC008C6E8C948C8600F08C96000E026E010E35
:1044BC00016E99EC22F008C007F0073AF00E0716CF
:1044CC008C500F0B07108C6E8C8600F08C96000EA7
:1044DC00026E030E016E99EC22F01200D80EF66EED
:1044EC00470EF76E000EF86E00EEF2F010EE08F0CC
:1044FC000900F5CFEEFFE550E150FAE101EE00F0D6
:10450C00500EEE6AE806FDE100EECCF0260EEE6AE7
:10451C00E806FDE15E6A5D6A5F905F92000EF86EE0
:10452C00000118EF1BF0000E046E000E036EB2EFCC
:10453C0022F0000E066E000E056E054A062A065085
:10454C0009E1A50E055CD8A0AEEF22F0B0EF22F089
:10455C00A3EF22F0034A042A0150035C02500458D2
:10456C00D8A0BBEF22F0BDEF22F09FEF22F012009B
:10457C00000E1E1A000E1F1A000E201A800E211A91
:10458C001AC001F01BC002F01CC003F01DC004F0E7
:10459C001EC005F01FC006F020C007F021C008F0B7
:1045AC00F4EC0CF001C01AF002C01BF003C01CF0BC
:1045BC0004C01DF01200000E106E000E0F6EF2EF14
:1045CC0022F00EC001F0026A0CC003F00DC004F022
:1045DC0042EC1FF00F4A102A0F500A24D96E1050CB
:1045EC000B20DA6EDF500E6E0E50D8A400EF23F0C5
:1045FC0002EF23F0E7EF22F0120014BE10EF23F0CD
:10460C00145006E11304D8B00EEF23F010EF23F092
:10461C001EEF23F013C015F014C016F0151E161E55
:10462C00154A162A15C013F016C014F022EF23F009
:10463C0013C013F014C014F012000E6E020E0E60B4
:10464C002AEF23F02CEF23F035EF23F00B500F0B58
:10465C0080090F6E0F504EEC22F03CEF23F00B5004
:10466C000F0BC0090F6E0F504EEC22F00CC009F06E
:10467C000DC00AF07AEC21F01200BF0E036EFF0E93
:10468C00046E01C005F002C006F00350052604506C
:10469C00062206500AE11A0E055CD8A058EF23F04A
:1046AC005BEF23F0010E5CEF23F0000E016E026A4B
:1046BC0012000150021003100410D8B468EF23F05C
:1046CC006AEF23F072EF23F0000E011A000E021AAB
:1046DC00000E031A800E041A01C001F002C002F091
:1046EC0003C003F004C004F01200D00E036EFF0EE2
:1046FC00046E01C005F002C006F0035005260450FC
:10470C00062206500AE10A0E055CD8A090EF23F0B1
:10471C0093EF23F0010E94EF23F0000E016E026A6A
:10472C00120001C003F002C004F09FEF23F0014A15
:10473C00022A01C0D9FF02C0DAFFDF50D8A4A9EFCA
:10474C0023F0ABEF23F09DEF23F00350015C016EDF
:10475C0004500258026E1200000E956E000E026E8E
:10476C000F0E016E99EC22F0020E4EEC22F0280E88
:10477C004EEC22F0010E4EEC22F00C0E4EEC22F020
:10478C00060E4EEC22F0120001500302F3CF05F09E
:10479C00F4CF06F001500402F35006260250030237
:1047AC00F350062605C001F006C002F01200060008
:1047BC000001F64BF72BF6C089FFF2925F921100C5
:1047CC009380F288F292F19CF28E1200EE7C2B41D7
:0E47DC0001000100010E4EEC22F0120012004E
:020000040020DA
:08000000FFFFFFFFFFFFFFFF00
:020000040030CA
:0E000000000C181EFF8181FF0FC00FE00F40A3
:00000001FF
